{
  "contractName": "SwapCentralTokenSale",
  "abi": [
    {
      "inputs": [
        {
          "internalType": "uint256",
          "name": "_rate",
          "type": "uint256"
        },
        {
          "internalType": "address payable",
          "name": "_wallet",
          "type": "address"
        },
        {
          "internalType": "contract IERC20",
          "name": "_token",
          "type": "address"
        },
        {
          "internalType": "contract KYCMockup",
          "name": "_kyc",
          "type": "address"
        }
      ],
      "stateMutability": "nonpayable",
      "type": "constructor"
    },
    {
      "anonymous": false,
      "inputs": [
        {
          "indexed": true,
          "internalType": "address",
          "name": "purchaser",
          "type": "address"
        },
        {
          "indexed": true,
          "internalType": "address",
          "name": "beneficiary",
          "type": "address"
        },
        {
          "indexed": false,
          "internalType": "uint256",
          "name": "value",
          "type": "uint256"
        },
        {
          "indexed": false,
          "internalType": "uint256",
          "name": "amount",
          "type": "uint256"
        }
      ],
      "name": "TokensPurchased",
      "type": "event"
    },
    {
      "inputs": [],
      "name": "Getrate",
      "outputs": [
        {
          "internalType": "uint256",
          "name": "",
          "type": "uint256"
        }
      ],
      "stateMutability": "view",
      "type": "function",
      "constant": true
    },
    {
      "inputs": [],
      "name": "Getwallet",
      "outputs": [
        {
          "internalType": "address payable",
          "name": "",
          "type": "address"
        }
      ],
      "stateMutability": "view",
      "type": "function",
      "constant": true
    },
    {
      "inputs": [
        {
          "internalType": "address",
          "name": "beneficiary",
          "type": "address"
        }
      ],
      "name": "buyTokens",
      "outputs": [],
      "stateMutability": "payable",
      "type": "function",
      "payable": true
    },
    {
      "inputs": [],
      "name": "getToken",
      "outputs": [
        {
          "internalType": "contract IERC20",
          "name": "",
          "type": "address"
        }
      ],
      "stateMutability": "view",
      "type": "function",
      "constant": true
    },
    {
      "inputs": [],
      "name": "weiRaised",
      "outputs": [
        {
          "internalType": "uint256",
          "name": "",
          "type": "uint256"
        }
      ],
      "stateMutability": "view",
      "type": "function",
      "constant": true
    },
    {
      "stateMutability": "payable",
      "type": "receive",
      "payable": true
    }
  ],
  "bytecode": "0x608060405234801561001057600080fd5b50604051610b00380380610b0083398101604081905261002f916100f6565b60016000558383838261005d5760405162461bcd60e51b81526004016100549061018e565b60405180910390fd5b6001600160a01b0382166100835760405162461bcd60e51b8152600401610054906101c5565b6001600160a01b0381166100a95760405162461bcd60e51b81526004016100549061014a565b600392909255600280546001600160a01b03199081166001600160a01b03938416179091556001805482169383169390931790925560058054909216921691909117905550610222915050565b6000806000806080858703121561010b578384fd5b84519350602085015161011d8161020a565b604086015190935061012e8161020a565b606086015190925061013f8161020a565b939692955090935050565b60208082526024908201527f43726f776473616c653a20746f6b656e20697320746865207a65726f206164646040820152637265737360e01b606082015260800190565b60208082526014908201527f43726f776473616c653a20726174652069732030000000000000000000000000604082015260600190565b60208082526025908201527f43726f776473616c653a2077616c6c657420697320746865207a65726f206164604082015264647265737360d81b606082015260800190565b6001600160a01b038116811461021f57600080fd5b50565b6108cf806102316000396000f3fe60806040526004361061004e5760003560e01c8063061785651461006a5780631cf0c0de1461009557806321df0da7146100b75780634042b66f146100cc578063ec8ac4d8146100e157610065565b366100655761006361005e6100ef565b6100f3565b005b600080fd5b34801561007657600080fd5b5061007f6101d1565b60405161008c91906105df565b60405180910390f35b3480156100a157600080fd5b506100aa6101e0565b60405161008c9190610805565b3480156100c357600080fd5b5061007f6101e6565b3480156100d857600080fd5b506100aa6101f5565b61006361005e36600461057c565b3390565b6002600054141561011f5760405162461bcd60e51b815260040161011690610797565b60405180910390fd5b60026000553461012f82826101fb565b600061013a826102a5565b60045490915061014a90836102c2565b60045561015783826102d5565b826001600160a01b03166101696100ef565b6001600160a01b03167f6faf93231a456e552dbc9961f58d9713ee4f2e69d15f1975b050ef0911053a7b84846040516101a392919061080e565b60405180910390a36101b583836102a1565b6101bd6102df565b6101c783836102a1565b5050600160005550565b6002546001600160a01b031690565b60035490565b6001546001600160a01b031690565b60045490565b610205828261031b565b6005546040516337c8d7f960e21b81526001600160a01b039091169063df235fe4906102359033906004016105df565b60206040518083038186803b15801561024d57600080fd5b505afa158015610261573d6000803e3d6000fd5b505050506040513d601f19601f8201168201806040525081019061028591906105a3565b6102a15760405162461bcd60e51b81526004016101169061063f565b5050565b60006102bc6003548361035e90919063ffffffff16565b92915050565b60006102ce828461081c565b9392505050565b6102a1828261036a565b6002546040516001600160a01b03909116903480156108fc02916000818181858888f19350505050158015610318573d6000803e3d6000fd5b50565b6001600160a01b0382166103415760405162461bcd60e51b8152600401610116906106cc565b806102a15760405162461bcd60e51b8152600401610116906107ce565b60006102ce8284610834565b6001546102a1906001600160a01b031683836103d28363a9059cbb60e01b848460405160240161039b9291906105f3565b60408051601f198184030181529190526020810180516001600160e01b03166001600160e01b0319909316929092179091526103d7565b505050565b600061042c826040518060400160405280602081526020017f5361666545524332303a206c6f772d6c6576656c2063616c6c206661696c6564815250856001600160a01b03166104669092919063ffffffff16565b8051909150156103d2578080602001905181019061044a91906105a3565b6103d25760405162461bcd60e51b81526004016101169061074d565b6060610475848460008561047d565b949350505050565b60608247101561049f5760405162461bcd60e51b815260040161011690610686565b6104a88561053d565b6104c45760405162461bcd60e51b815260040161011690610716565b600080866001600160a01b031685876040516104e091906105c3565b60006040518083038185875af1925050503d806000811461051d576040519150601f19603f3d011682016040523d82523d6000602084013e610522565b606091505b5091509150610532828286610543565b979650505050505050565b3b151590565b606083156105525750816102ce565b8251156105625782518084602001fd5b8160405162461bcd60e51b8152600401610116919061060c565b60006020828403121561058d578081fd5b81356001600160a01b03811681146102ce578182fd5b6000602082840312156105b4578081fd5b815180151581146102ce578182fd5b600082516105d5818460208701610853565b9190910192915050565b6001600160a01b0391909116815260200190565b6001600160a01b03929092168252602082015260400190565b600060208252825180602084015261062b816040850160208701610853565b601f01601f19169190910160400192915050565b60208082526027908201527f4b5943204e6f7420436f6d706c657465642c207075726368617365206e6f7420604082015266185b1b1bddd95960ca1b606082015260800190565b60208082526026908201527f416464726573733a20696e73756666696369656e742062616c616e636520666f6040820152651c8818d85b1b60d21b606082015260800190565b6020808252602a908201527f43726f776473616c653a2062656e656669636961727920697320746865207a65604082015269726f206164647265737360b01b606082015260800190565b6020808252601d908201527f416464726573733a2063616c6c20746f206e6f6e2d636f6e7472616374000000604082015260600190565b6020808252602a908201527f5361666545524332303a204552433230206f7065726174696f6e20646964206e6040820152691bdd081cdd58d8d9595960b21b606082015260800190565b6020808252601f908201527f5265656e7472616e637947756172643a207265656e7472616e742063616c6c00604082015260600190565b60208082526019908201527f43726f776473616c653a20776569416d6f756e74206973203000000000000000604082015260600190565b90815260200190565b918252602082015260400190565b6000821982111561082f5761082f610883565b500190565b600081600019048311821515161561084e5761084e610883565b500290565b60005b8381101561086e578181015183820152602001610856565b8381111561087d576000848401525b50505050565b634e487b7160e01b600052601160045260246000fdfea2646970667358221220a8dbf9ec0d3c67fe503ae51c7203f35c645bb3635fbcb151332e26c5ecf1b0fc64736f6c63430008000033",
  "immutableReferences": {},
  "source": "pragma solidity ^0.8.0;\r\n// SPDX-License-Identifier: MIT\r\n\r\nimport \"./CrowdSale.sol\";\r\nimport \"./KYCMockup.sol\";\r\n\r\n\r\ncontract SwapCentralTokenSale is Crowdsale{\r\n    KYCMockup kyc;\r\n\r\n    constructor(uint256 _rate,address payable _wallet,IERC20 _token, KYCMockup _kyc)\r\n        Crowdsale(_rate, _wallet, _token){\r\n\r\n          kyc = _kyc;\r\n        }\r\n\r\n        function _preValidatePurchase(address beneficiary, uint256 weiAmount) internal view override {\r\n          super._preValidatePurchase(beneficiary, weiAmount);\r\n          require(kyc.kycCompleted(msg.sender), \"KYC Not Completed, purchase not allowed\");\r\n        }\r\n  }\r\n",
  "sourcePath": "C:\\Users\\jjrab\\OneDrive\\Desktop\\Dappdev\\SCT-Sale\\contracts\\SwapCentralTokenSale.sol",
  "compiler": {
    "name": "solc",
    "version": "0.8.0+commit.c7dfd78e.Emscripten.clang"
  },
  "schemaVersion": "3.4.4",
  "updatedAt": "2022-01-24T00:55:30.095Z",
  "networkType": "ethereum",
  "devdoc": {
    "kind": "dev",
    "methods": {
      "Getrate()": {
        "returns": {
          "_0": "the number of token units a buyer gets per wei."
        }
      },
      "Getwallet()": {
        "returns": {
          "_0": "the address where funds are collected."
        }
      },
      "buyTokens(address)": {
        "details": "low level token purchase ***DO NOT OVERRIDE*** This function has a non-reentrancy guard, so it shouldn't be called by another `nonReentrant` function.",
        "params": {
          "beneficiary": "Recipient of the token purchase"
        }
      },
      "getToken()": {
        "returns": {
          "_0": "the token being sold."
        }
      },
      "weiRaised()": {
        "returns": {
          "_0": "the amount of wei raised."
        }
      }
    },
    "version": 1
  },
  "userdoc": {
    "events": {
      "TokensPurchased(address,address,uint256,uint256)": {
        "notice": "Event for token purchase logging"
      }
    },
    "kind": "user",
    "methods": {},
    "version": 1
  }
}